{
  "_format": "hh-sol-artifact-1",
  "contractName": "ERC1484",
  "sourceName": "contracts/ERC1484.sol",
  "abi": [
    {
      "anonymous": false,
      "inputs": [
        {
          "indexed": true,
          "internalType": "address",
          "name": "initiator",
          "type": "address"
        },
        {
          "indexed": true,
          "internalType": "uint256",
          "name": "ein",
          "type": "uint256"
        },
        {
          "indexed": false,
          "internalType": "address",
          "name": "approvingAddress",
          "type": "address"
        },
        {
          "indexed": false,
          "internalType": "address",
          "name": "addedAddress",
          "type": "address"
        }
      ],
      "name": "AssociatedAddressAdded",
      "type": "event"
    },
    {
      "anonymous": false,
      "inputs": [
        {
          "indexed": true,
          "internalType": "address",
          "name": "initiator",
          "type": "address"
        },
        {
          "indexed": true,
          "internalType": "uint256",
          "name": "ein",
          "type": "uint256"
        },
        {
          "indexed": false,
          "internalType": "address",
          "name": "removedAddress",
          "type": "address"
        }
      ],
      "name": "AssociatedAddressRemoved",
      "type": "event"
    },
    {
      "anonymous": false,
      "inputs": [
        {
          "indexed": true,
          "internalType": "address",
          "name": "initiator",
          "type": "address"
        },
        {
          "indexed": true,
          "internalType": "uint256",
          "name": "ein",
          "type": "uint256"
        },
        {
          "indexed": false,
          "internalType": "address",
          "name": "recoveryAddress",
          "type": "address"
        },
        {
          "indexed": false,
          "internalType": "address",
          "name": "associatedAddress",
          "type": "address"
        },
        {
          "indexed": false,
          "internalType": "address[]",
          "name": "providers",
          "type": "address[]"
        },
        {
          "indexed": false,
          "internalType": "address[]",
          "name": "resolvers",
          "type": "address[]"
        },
        {
          "indexed": false,
          "internalType": "bool",
          "name": "delegated",
          "type": "bool"
        }
      ],
      "name": "IdentityCreated",
      "type": "event"
    },
    {
      "anonymous": false,
      "inputs": [
        {
          "indexed": true,
          "internalType": "address",
          "name": "initiator",
          "type": "address"
        },
        {
          "indexed": true,
          "internalType": "uint256",
          "name": "ein",
          "type": "uint256"
        },
        {
          "indexed": false,
          "internalType": "address",
          "name": "recoveryAddress",
          "type": "address"
        },
        {
          "indexed": false,
          "internalType": "bool",
          "name": "resolversReset",
          "type": "bool"
        }
      ],
      "name": "IdentityDestroyed",
      "type": "event"
    },
    {
      "anonymous": false,
      "inputs": [
        {
          "indexed": true,
          "internalType": "address",
          "name": "initiator",
          "type": "address"
        },
        {
          "indexed": true,
          "internalType": "uint256",
          "name": "ein",
          "type": "uint256"
        },
        {
          "indexed": false,
          "internalType": "address",
          "name": "provider",
          "type": "address"
        },
        {
          "indexed": false,
          "internalType": "bool",
          "name": "delegated",
          "type": "bool"
        }
      ],
      "name": "ProviderAdded",
      "type": "event"
    },
    {
      "anonymous": false,
      "inputs": [
        {
          "indexed": true,
          "internalType": "address",
          "name": "initiator",
          "type": "address"
        },
        {
          "indexed": true,
          "internalType": "uint256",
          "name": "ein",
          "type": "uint256"
        },
        {
          "indexed": false,
          "internalType": "address",
          "name": "provider",
          "type": "address"
        },
        {
          "indexed": false,
          "internalType": "bool",
          "name": "delegated",
          "type": "bool"
        }
      ],
      "name": "ProviderRemoved",
      "type": "event"
    },
    {
      "anonymous": false,
      "inputs": [
        {
          "indexed": true,
          "internalType": "address",
          "name": "initiator",
          "type": "address"
        },
        {
          "indexed": true,
          "internalType": "uint256",
          "name": "ein",
          "type": "uint256"
        },
        {
          "indexed": false,
          "internalType": "address",
          "name": "oldRecoveryAddress",
          "type": "address"
        },
        {
          "indexed": false,
          "internalType": "address",
          "name": "newRecoveryAddress",
          "type": "address"
        }
      ],
      "name": "RecoveryAddressChangeTriggered",
      "type": "event"
    },
    {
      "anonymous": false,
      "inputs": [
        {
          "indexed": true,
          "internalType": "address",
          "name": "initiator",
          "type": "address"
        },
        {
          "indexed": true,
          "internalType": "uint256",
          "name": "ein",
          "type": "uint256"
        },
        {
          "indexed": false,
          "internalType": "address[]",
          "name": "oldAssociatedAddresses",
          "type": "address[]"
        },
        {
          "indexed": false,
          "internalType": "address",
          "name": "newAssociatedAddress",
          "type": "address"
        }
      ],
      "name": "RecoveryTriggered",
      "type": "event"
    },
    {
      "anonymous": false,
      "inputs": [
        {
          "indexed": true,
          "internalType": "address",
          "name": "initiator",
          "type": "address"
        },
        {
          "indexed": true,
          "internalType": "uint256",
          "name": "ein",
          "type": "uint256"
        },
        {
          "indexed": false,
          "internalType": "address",
          "name": "resolvers",
          "type": "address"
        }
      ],
      "name": "ResolverAdded",
      "type": "event"
    },
    {
      "anonymous": false,
      "inputs": [
        {
          "indexed": true,
          "internalType": "address",
          "name": "initiator",
          "type": "address"
        },
        {
          "indexed": true,
          "internalType": "uint256",
          "name": "ein",
          "type": "uint256"
        },
        {
          "indexed": false,
          "internalType": "address",
          "name": "resolvers",
          "type": "address"
        }
      ],
      "name": "ResolverRemoved",
      "type": "event"
    },
    {
      "inputs": [
        {
          "internalType": "address",
          "name": "_address",
          "type": "address"
        },
        {
          "internalType": "uint256",
          "name": "ein",
          "type": "uint256"
        }
      ],
      "name": "_addAssociatedAddress",
      "outputs": [],
      "stateMutability": "nonpayable",
      "type": "function"
    },
    {
      "inputs": [
        {
          "internalType": "address",
          "name": "approvingAddress",
          "type": "address"
        },
        {
          "internalType": "address",
          "name": "addressToAdd",
          "type": "address"
        },
        {
          "internalType": "uint8",
          "name": "v",
          "type": "uint8"
        },
        {
          "internalType": "bytes32",
          "name": "r",
          "type": "bytes32"
        },
        {
          "internalType": "bytes32",
          "name": "s",
          "type": "bytes32"
        },
        {
          "internalType": "uint256",
          "name": "timestamp",
          "type": "uint256"
        }
      ],
      "name": "addAssociatedAddress",
      "outputs": [],
      "stateMutability": "nonpayable",
      "type": "function"
    },
    {
      "inputs": [
        {
          "internalType": "address",
          "name": "approvingAddress",
          "type": "address"
        },
        {
          "internalType": "address",
          "name": "addressToAdd",
          "type": "address"
        },
        {
          "internalType": "uint8[2]",
          "name": "v",
          "type": "uint8[2]"
        },
        {
          "internalType": "bytes32[2]",
          "name": "r",
          "type": "bytes32[2]"
        },
        {
          "internalType": "bytes32[2]",
          "name": "s",
          "type": "bytes32[2]"
        },
        {
          "internalType": "uint256[2]",
          "name": "timestamp",
          "type": "uint256[2]"
        }
      ],
      "name": "addAssociatedAddressDelegated",
      "outputs": [],
      "stateMutability": "nonpayable",
      "type": "function"
    },
    {
      "inputs": [
        {
          "internalType": "address[]",
          "name": "providers",
          "type": "address[]"
        }
      ],
      "name": "addProviders",
      "outputs": [],
      "stateMutability": "nonpayable",
      "type": "function"
    },
    {
      "inputs": [
        {
          "internalType": "uint256",
          "name": "ein",
          "type": "uint256"
        },
        {
          "internalType": "address[]",
          "name": "providers",
          "type": "address[]"
        }
      ],
      "name": "addProvidersFor",
      "outputs": [],
      "stateMutability": "nonpayable",
      "type": "function"
    },
    {
      "inputs": [
        {
          "internalType": "address[]",
          "name": "resolvers",
          "type": "address[]"
        }
      ],
      "name": "addResolvers",
      "outputs": [],
      "stateMutability": "nonpayable",
      "type": "function"
    },
    {
      "inputs": [
        {
          "internalType": "uint256",
          "name": "ein",
          "type": "uint256"
        },
        {
          "internalType": "address[]",
          "name": "resolvers",
          "type": "address[]"
        }
      ],
      "name": "addResolversFor",
      "outputs": [],
      "stateMutability": "nonpayable",
      "type": "function"
    },
    {
      "inputs": [
        {
          "internalType": "address",
          "name": "recoveryAddress",
          "type": "address"
        },
        {
          "internalType": "address[]",
          "name": "providers",
          "type": "address[]"
        },
        {
          "internalType": "address[]",
          "name": "resolvers",
          "type": "address[]"
        }
      ],
      "name": "createIdentity",
      "outputs": [
        {
          "internalType": "uint256",
          "name": "ein",
          "type": "uint256"
        }
      ],
      "stateMutability": "nonpayable",
      "type": "function"
    },
    {
      "inputs": [
        {
          "internalType": "address",
          "name": "recoveryAddress",
          "type": "address"
        },
        {
          "internalType": "address",
          "name": "associatedAddress",
          "type": "address"
        },
        {
          "internalType": "address[]",
          "name": "providers",
          "type": "address[]"
        },
        {
          "internalType": "address[]",
          "name": "resolvers",
          "type": "address[]"
        },
        {
          "internalType": "uint8",
          "name": "v",
          "type": "uint8"
        },
        {
          "internalType": "bytes32",
          "name": "r",
          "type": "bytes32"
        },
        {
          "internalType": "bytes32",
          "name": "s",
          "type": "bytes32"
        },
        {
          "internalType": "uint256",
          "name": "timestamp",
          "type": "uint256"
        }
      ],
      "name": "createIdentityDelegated",
      "outputs": [
        {
          "internalType": "uint256",
          "name": "ein",
          "type": "uint256"
        }
      ],
      "stateMutability": "nonpayable",
      "type": "function"
    },
    {
      "inputs": [
        {
          "internalType": "address",
          "name": "_address",
          "type": "address"
        }
      ],
      "name": "getEIN",
      "outputs": [
        {
          "internalType": "uint256",
          "name": "ein",
          "type": "uint256"
        }
      ],
      "stateMutability": "view",
      "type": "function"
    },
    {
      "inputs": [
        {
          "internalType": "uint256",
          "name": "ein",
          "type": "uint256"
        }
      ],
      "name": "getIdentity",
      "outputs": [
        {
          "internalType": "address",
          "name": "recoveryAddress",
          "type": "address"
        },
        {
          "internalType": "address[]",
          "name": "associatedAddresses",
          "type": "address[]"
        },
        {
          "internalType": "address[]",
          "name": "providers",
          "type": "address[]"
        },
        {
          "internalType": "address[]",
          "name": "resolvers",
          "type": "address[]"
        }
      ],
      "stateMutability": "view",
      "type": "function"
    },
    {
      "inputs": [
        {
          "internalType": "string",
          "name": "_message",
          "type": "string"
        }
      ],
      "name": "getMessageHash",
      "outputs": [
        {
          "internalType": "bytes32",
          "name": "",
          "type": "bytes32"
        }
      ],
      "stateMutability": "pure",
      "type": "function"
    },
    {
      "inputs": [
        {
          "internalType": "address",
          "name": "_address",
          "type": "address"
        }
      ],
      "name": "hasIdentity",
      "outputs": [
        {
          "internalType": "bool",
          "name": "",
          "type": "bool"
        }
      ],
      "stateMutability": "view",
      "type": "function"
    },
    {
      "inputs": [
        {
          "internalType": "uint256",
          "name": "ein",
          "type": "uint256"
        }
      ],
      "name": "identityExists",
      "outputs": [
        {
          "internalType": "bool",
          "name": "",
          "type": "bool"
        }
      ],
      "stateMutability": "view",
      "type": "function"
    },
    {
      "inputs": [
        {
          "internalType": "uint256",
          "name": "ein",
          "type": "uint256"
        },
        {
          "internalType": "address",
          "name": "_address",
          "type": "address"
        }
      ],
      "name": "isAssociatedAddressFor",
      "outputs": [
        {
          "internalType": "bool",
          "name": "",
          "type": "bool"
        }
      ],
      "stateMutability": "view",
      "type": "function"
    },
    {
      "inputs": [
        {
          "internalType": "uint256",
          "name": "ein",
          "type": "uint256"
        },
        {
          "internalType": "address",
          "name": "provider",
          "type": "address"
        }
      ],
      "name": "isProviderFor",
      "outputs": [
        {
          "internalType": "bool",
          "name": "",
          "type": "bool"
        }
      ],
      "stateMutability": "view",
      "type": "function"
    },
    {
      "inputs": [
        {
          "internalType": "uint256",
          "name": "ein",
          "type": "uint256"
        },
        {
          "internalType": "address",
          "name": "resolver",
          "type": "address"
        }
      ],
      "name": "isResolverFor",
      "outputs": [
        {
          "internalType": "bool",
          "name": "",
          "type": "bool"
        }
      ],
      "stateMutability": "view",
      "type": "function"
    },
    {
      "inputs": [
        {
          "internalType": "address",
          "name": "_address",
          "type": "address"
        },
        {
          "internalType": "bytes32",
          "name": "messageHash",
          "type": "bytes32"
        },
        {
          "internalType": "uint8",
          "name": "v",
          "type": "uint8"
        },
        {
          "internalType": "bytes32",
          "name": "r",
          "type": "bytes32"
        },
        {
          "internalType": "bytes32",
          "name": "s",
          "type": "bytes32"
        }
      ],
      "name": "isSigned",
      "outputs": [
        {
          "internalType": "bool",
          "name": "",
          "type": "bool"
        }
      ],
      "stateMutability": "pure",
      "type": "function"
    },
    {
      "inputs": [],
      "name": "removeAssociatedAddress",
      "outputs": [],
      "stateMutability": "nonpayable",
      "type": "function"
    },
    {
      "inputs": [
        {
          "internalType": "address",
          "name": "addressToRemove",
          "type": "address"
        },
        {
          "internalType": "uint8",
          "name": "v",
          "type": "uint8"
        },
        {
          "internalType": "bytes32",
          "name": "r",
          "type": "bytes32"
        },
        {
          "internalType": "bytes32",
          "name": "s",
          "type": "bytes32"
        },
        {
          "internalType": "uint256",
          "name": "timestamp",
          "type": "uint256"
        }
      ],
      "name": "removeAssociatedAddressDelegated",
      "outputs": [],
      "stateMutability": "nonpayable",
      "type": "function"
    },
    {
      "inputs": [
        {
          "internalType": "address[]",
          "name": "providers",
          "type": "address[]"
        }
      ],
      "name": "removeProviders",
      "outputs": [],
      "stateMutability": "nonpayable",
      "type": "function"
    },
    {
      "inputs": [
        {
          "internalType": "uint256",
          "name": "ein",
          "type": "uint256"
        },
        {
          "internalType": "address[]",
          "name": "providers",
          "type": "address[]"
        }
      ],
      "name": "removeProvidersFor",
      "outputs": [],
      "stateMutability": "nonpayable",
      "type": "function"
    },
    {
      "inputs": [
        {
          "internalType": "address[]",
          "name": "resolvers",
          "type": "address[]"
        }
      ],
      "name": "removeResolvers",
      "outputs": [],
      "stateMutability": "nonpayable",
      "type": "function"
    },
    {
      "inputs": [
        {
          "internalType": "uint256",
          "name": "ein",
          "type": "uint256"
        },
        {
          "internalType": "address[]",
          "name": "resolvers",
          "type": "address[]"
        }
      ],
      "name": "removeResolversFor",
      "outputs": [],
      "stateMutability": "nonpayable",
      "type": "function"
    },
    {
      "inputs": [
        {
          "internalType": "bytes",
          "name": "sig",
          "type": "bytes"
        }
      ],
      "name": "splitSignature",
      "outputs": [
        {
          "internalType": "bytes32",
          "name": "r",
          "type": "bytes32"
        },
        {
          "internalType": "bytes32",
          "name": "s",
          "type": "bytes32"
        },
        {
          "internalType": "uint8",
          "name": "v",
          "type": "uint8"
        }
      ],
      "stateMutability": "pure",
      "type": "function"
    },
    {
      "inputs": [
        {
          "internalType": "uint256",
          "name": "ein",
          "type": "uint256"
        },
        {
          "internalType": "address[]",
          "name": "firstChunk",
          "type": "address[]"
        },
        {
          "internalType": "address[]",
          "name": "lastChunk",
          "type": "address[]"
        },
        {
          "internalType": "bool",
          "name": "resetResolvers",
          "type": "bool"
        }
      ],
      "name": "triggerDestruction",
      "outputs": [],
      "stateMutability": "nonpayable",
      "type": "function"
    },
    {
      "inputs": [
        {
          "internalType": "uint256",
          "name": "ein",
          "type": "uint256"
        },
        {
          "internalType": "address",
          "name": "newAssociatedAddress",
          "type": "address"
        },
        {
          "internalType": "uint8",
          "name": "v",
          "type": "uint8"
        },
        {
          "internalType": "bytes32",
          "name": "r",
          "type": "bytes32"
        },
        {
          "internalType": "bytes32",
          "name": "s",
          "type": "bytes32"
        },
        {
          "internalType": "uint256",
          "name": "timestamp",
          "type": "uint256"
        }
      ],
      "name": "triggerRecovery",
      "outputs": [],
      "stateMutability": "nonpayable",
      "type": "function"
    },
    {
      "inputs": [
        {
          "internalType": "address",
          "name": "newRecoveryAddress",
          "type": "address"
        }
      ],
      "name": "triggerRecoveryAddressChange",
      "outputs": [],
      "stateMutability": "nonpayable",
      "type": "function"
    },
    {
      "inputs": [
        {
          "internalType": "uint256",
          "name": "ein",
          "type": "uint256"
        },
        {
          "internalType": "address",
          "name": "newRecoveryAddress",
          "type": "address"
        }
      ],
      "name": "triggerRecoveryAddressChangeFor",
      "outputs": [],
      "stateMutability": "nonpayable",
      "type": "function"
    }
  ],
  "bytecode": "0x6080604052604051602001620000159062000127565b604051602081830303815290604052805190602001206000556040516020016200003f906200013e565b60405160208183030381529060405280519060200120600155604051602001620000699062000110565b6040516020818303038152906040528051906020012060025560006003553480156200009457600080fd5b506200024d565b6000620000aa602f8362000155565b9150620000b78262000160565b602f82019050919050565b6000620000d160278362000155565b9150620000de82620001af565b602782019050919050565b6000620000f860348362000155565b91506200010582620001fe565b603482019050919050565b60006200011d826200009b565b9150819050919050565b60006200013482620000c2565b9150819050919050565b60006200014b82620000e9565b9150819050919050565b600081905092915050565b7f417574686f72697a6564207468652072656d6f76616c206f662074686520617060008201527f70726f76656420616464726573732e0000000000000000000000000000000000602082015250565b7f417574686f72697a656420746865206372656174696f6e206f6620616e20696460008201527f656e746974792e00000000000000000000000000000000000000000000000000602082015250565b7f417574686f72697a65642074686520617070726f76616c206f6620616e6f746860008201527f657220617070726f76656420616464726573732e000000000000000000000000602082015250565b6135fb806200025d6000396000f3fe608060405234801561001057600080fd5b50600436106101cf5760003560e01c80635b5aed3a11610104578063a7bb5803116100a2578063d4b1cdcc11610071578063d4b1cdcc1461055f578063dd9ad9ed1461058f578063e846fd91146105ab578063fa57b576146105c7576101cf565b8063a7bb5803146104c5578063ab5f6781146104f7578063b446f3b214610513578063b8a5c2a614610543576101cf565b80638677ebe8116100de5780638677ebe81461042d5780638e1bb6331461045d578063960b11f514610479578063a687662d14610495576101cf565b80635b5aed3a146103ae5780637d079951146103de57806385e3f058146103fa576101cf565b8063237f1a21116101715780633aedf3c91161014b5780633aedf3c91461033c5780633b4656a11461035857806353a9698a146103625780635726f66014610392576101cf565b8063237f1a21146102c05780632501faa5146102f0578063268e89701461030c576101cf565b806314fb5646116101ad57806314fb56461461023c5780631bfe35081461026c5780631df0663914610288578063232e7d83146102a4576101cf565b8063010887dc146101d457806305c62c2f146101f057806306c93c3614610220575b600080fd5b6101ee60048036038101906101e99190612639565b6105e3565b005b61020a600480360381019061020591906120a9565b61063c565b6040516102179190612dbf565b60405180910390f35b61023a60048036038101906102359190612639565b6106cd565b005b610256600480360381019061025191906120d2565b610726565b6040516102639190612dbf565b60405180910390f35b610286600480360381019061028191906120a9565b610796565b005b6102a2600480360381019061029d91906123d1565b610799565b005b6102be60048036038101906102b99190612484565b610809565b005b6102da60048036038101906102d591906120a9565b610820565b6040516102e79190612b8d565b60405180910390f35b61030a60048036038101906103059190612574565b610871565b005b610326600480360381019061032191906122d1565b610875565b6040516103339190612dbf565b60405180910390f35b61035660048036038101906103519190612248565b610892565b005b610360610a04565b005b61037c60048036038101906103779190612574565b610a0f565b6040516103899190612b8d565b60405180910390f35b6103ac60048036038101906103a79190612639565b610b5d565b005b6103c860048036038101906103c3919061254b565b610bb6565b6040516103d59190612b8d565b60405180910390f35b6103f860048036038101906103f39190612484565b610c25565b005b610414600480360381019061040f919061254b565b610c3c565b6040516104249493929190612b33565b60405180910390f35b6104476004803603810190610442919061235a565b610e84565b6040516104549190612b8d565b60405180910390f35b610477600480360381019061047291906125b0565b610fbd565b005b610493600480360381019061048e9190612639565b610fc5565b005b6104af60048036038101906104aa9190612574565b61101e565b6040516104bc9190612b8d565b60405180910390f35b6104df60048036038101906104da91906124c9565b61106a565b6040516104ee93929190612bc3565b60405180910390f35b610511600480360381019061050c91906121bd565b6110d2565b005b61052d6004803603810190610528919061250a565b611318565b60405161053a9190612ba8565b60405180910390f35b61055d60048036038101906105589190612484565b611348565b005b61057960048036038101906105749190612574565b61135f565b6040516105869190612b8d565b60405180910390f35b6105a960048036038101906105a4919061240d565b6114ad565b005b6105c560048036038101906105c09190612484565b61150b565b005b6105e160048036038101906105dc9190612691565b611522565b005b6105ed833361135f565b61062c576040517f08c379a000000000000000000000000000000000000000000000000000000000815260040161062390612cdf565b60405180910390fd5b61063783838361152a565b505050565b600061064782610820565b610686576040517f08c379a000000000000000000000000000000000000000000000000000000000815260040161067d90612c5f565b60405180910390fd5b600560008373ffffffffffffffffffffffffffffffffffffffff1673ffffffffffffffffffffffffffffffffffffffff168152602001908152602001600020549050919050565b6106d78333610a0f565b610716576040517f08c379a000000000000000000000000000000000000000000000000000000000815260040161070d90612c3f565b60405180910390fd5b6107218383836115c6565b505050565b60006107378a600054878787610e84565b610776576040517f08c379a000000000000000000000000000000000000000000000000000000000815260040161076d90612cbf565b60405180910390fd5b6107868b8b8b8b8b8b6001611662565b90509a9950505050505050505050565b50565b6107c1826004600084815260200190815260200160002060010161176c90919063ffffffff16565b80600560008473ffffffffffffffffffffffffffffffffffffffff1673ffffffffffffffffffffffffffffffffffffffff168152602001908152602001600020819055505050565b61081c6108153361063c565b83836115c6565b5050565b600061086a600560008473ffffffffffffffffffffffffffffffffffffffff1673ffffffffffffffffffffffffffffffffffffffff16815260200190815260200160002054610bb6565b9050919050565b5050565b60006108878633878787876000611662565b905095945050505050565b60008673ffffffffffffffffffffffffffffffffffffffff163373ffffffffffffffffffffffffffffffffffffffff1614905060008673ffffffffffffffffffffffffffffffffffffffff163373ffffffffffffffffffffffffffffffffffffffff1614905081806109015750805b610940576040517f08c379a000000000000000000000000000000000000000000000000000000000815260040161093790612c7f565b60405180910390fd5b81156109995761095587600054888888610e84565b610994576040517f08c379a000000000000000000000000000000000000000000000000000000000815260040161098b90612d5f565b60405180910390fd5b6109e8565b6109a888600154888888610e84565b6109e7576040517f08c379a00000000000000000000000000000000000000000000000000000000081526004016109de90612c9f565b60405180910390fd5b5b6109fa876109f58a61063c565b610799565b5050505050505050565b610a0d33611831565b565b60008060046000858152602001908152602001600020600301600001805480602002602001604051908101604052809291908181526020018280548015610aab57602002820191906000526020600020905b8160009054906101000a900473ffffffffffffffffffffffffffffffffffffffff1673ffffffffffffffffffffffffffffffffffffffff1681526020019060010190808311610a61575b5050505050905060005b8151811015610b50578373ffffffffffffffffffffffffffffffffffffffff16828281518110610b0e577f4e487b7100000000000000000000000000000000000000000000000000000000600052603260045260246000fd5b602002602001015173ffffffffffffffffffffffffffffffffffffffff161415610b3d57600192505050610b57565b8080610b4890612ff5565b915050610ab5565b5060009150505b92915050565b610b67833361135f565b610ba6576040517f08c379a0000000000000000000000000000000000000000000000000000000008152600401610b9d90612d3f565b60405180910390fd5b610bb18383836118a9565b505050565b60008073ffffffffffffffffffffffffffffffffffffffff166004600084815260200190815260200160002060000160009054906101000a900473ffffffffffffffffffffffffffffffffffffffff1673ffffffffffffffffffffffffffffffffffffffff1614159050919050565b610c38610c313361063c565b8383611945565b5050565b60006060806060610c4c85610bb6565b610c8b576040517f08c379a0000000000000000000000000000000000000000000000000000000008152600401610c8290612d1f565b60405180910390fd5b60006004600087815260200190815260200160002090508060000160009054906101000a900473ffffffffffffffffffffffffffffffffffffffff1681600101600001826003016000018360050160000182805480602002602001604051908101604052809291908181526020018280548015610d5d57602002820191906000526020600020905b8160009054906101000a900473ffffffffffffffffffffffffffffffffffffffff1673ffffffffffffffffffffffffffffffffffffffff1681526020019060010190808311610d13575b5050505050925081805480602002602001604051908101604052809291908181526020018280548015610de557602002820191906000526020600020905b8160009054906101000a900473ffffffffffffffffffffffffffffffffffffffff1673ffffffffffffffffffffffffffffffffffffffff1681526020019060010190808311610d9b575b5050505050915080805480602002602001604051908101604052809291908181526020018280548015610e6d57602002820191906000526020600020905b8160009054906101000a900473ffffffffffffffffffffffffffffffffffffffff1673ffffffffffffffffffffffffffffffffffffffff1681526020019060010190808311610e23575b505050505090509450945094509450509193509193565b60008085604051602001610e989190612aa8565b6040516020818303038152906040528051906020012090508673ffffffffffffffffffffffffffffffffffffffff1660018287878760405160008152602001604052604051610eea9493929190612bfa565b6020604051602081039080840390855afa158015610f0c573d6000803e3d6000fd5b5050506020604051035173ffffffffffffffffffffffffffffffffffffffff161480610fb157508673ffffffffffffffffffffffffffffffffffffffff1660018787878760405160008152602001604052604051610f6d9493929190612bfa565b6020604051602081039080840390855afa158015610f8f573d6000803e3d6000fd5b5050506020604051035173ffffffffffffffffffffffffffffffffffffffff16145b91505095945050505050565b505050505050565b610fcf8333610a0f565b61100e576040517f08c379a000000000000000000000000000000000000000000000000000000000815260040161100590612d9f565b60405180910390fd5b611019838383611945565b505050565b600082600560008473ffffffffffffffffffffffffffffffffffffffff1673ffffffffffffffffffffffffffffffffffffffff1681526020019081526020016000205414905092915050565b600080600060418451146110b3576040517f08c379a00000000000000000000000000000000000000000000000000000000081526004016110aa90612d7f565b60405180910390fd5b6020840151925060408401519150606084015160001a90509193909250565b6111a98660015486600060028110611113577f4e487b7100000000000000000000000000000000000000000000000000000000600052603260045260246000fd5b602002016020810190611126919061272c565b86600060028110611160577f4e487b7100000000000000000000000000000000000000000000000000000000600052603260045260246000fd5b60200201358660006002811061119f577f4e487b7100000000000000000000000000000000000000000000000000000000600052603260045260246000fd5b6020020135610e84565b6111e8576040517f08c379a00000000000000000000000000000000000000000000000000000000081526004016111df90612c9f565b60405180910390fd5b6112bf8560005486600160028110611229577f4e487b7100000000000000000000000000000000000000000000000000000000600052603260045260246000fd5b60200201602081019061123c919061272c565b86600160028110611276577f4e487b7100000000000000000000000000000000000000000000000000000000600052603260045260246000fd5b6020020135866001600281106112b5577f4e487b7100000000000000000000000000000000000000000000000000000000600052603260045260246000fd5b6020020135610e84565b6112fe576040517f08c379a00000000000000000000000000000000000000000000000000000000081526004016112f590612d5f565b60405180910390fd5b6113108561130b8861063c565b610799565b505050505050565b60008160405160200161132b9190612a91565b604051602081830303815290604052805190602001209050919050565b61135b6113543361063c565b83836118a9565b5050565b600080600460008581526020019081526020016000206005016000018054806020026020016040519081016040528092919081815260200182805480156113fb57602002820191906000526020600020905b8160009054906101000a900473ffffffffffffffffffffffffffffffffffffffff1673ffffffffffffffffffffffffffffffffffffffff16815260200190600101908083116113b1575b5050505050905060005b81518110156114a0578373ffffffffffffffffffffffffffffffffffffffff1682828151811061145e577f4e487b7100000000000000000000000000000000000000000000000000000000600052603260045260246000fd5b602002602001015173ffffffffffffffffffffffffffffffffffffffff16141561148d576001925050506114a7565b808061149890612ff5565b915050611405565b5060009150505b92915050565b6114bc85600254868686610e84565b6114fb576040517f08c379a00000000000000000000000000000000000000000000000000000000081526004016114f290612cff565b60405180910390fd5b61150485611831565b5050505050565b61151e6115173361063c565b838361152a565b5050565b505050505050565b60005b828290508110156115c0576115ad838383818110611574577f4e487b7100000000000000000000000000000000000000000000000000000000600052603260045260246000fd5b905060200201602081019061158991906120a9565b6004600087815260200190815260200160002060050161176c90919063ffffffff16565b80806115b890612ff5565b91505061152d565b50505050565b60005b8282905081101561165c57611649838383818110611610577f4e487b7100000000000000000000000000000000000000000000000000000000600052603260045260246000fd5b905060200201602081019061162591906120a9565b600460008781526020019081526020016000206003016119e190919063ffffffff16565b808061165490612ff5565b9150506115c9565b50505050565b60006003600081548092919061167790612ff5565b919050555060006004600060035481526020019081526020016000209050888160000160006101000a81548173ffffffffffffffffffffffffffffffffffffffff021916908373ffffffffffffffffffffffffffffffffffffffff1602179055506116e488600354610799565b6116f16003548888611945565b6116fe600354868661152a565b6003543373ffffffffffffffffffffffffffffffffffffffff167fe541733a4670852051762d3cdb7d9123bea21d01e252aa39ca403c8d0f5ab66c8b8b8b8b8b8b8b6040516117539796959493929190612ace565b60405180910390a3600354915050979650505050505050565b6117768282611d2f565b61182d5781600001819080600181540180825580915050600190039060005260206000200160009091909190916101000a81548173ffffffffffffffffffffffffffffffffffffffff021916908373ffffffffffffffffffffffffffffffffffffffff16021790555081600001805490508260010160008373ffffffffffffffffffffffffffffffffffffffff1673ffffffffffffffffffffffffffffffffffffffff168152602001908152602001600020819055505b5050565b61186181600460006118428561063c565b81526020019081526020016000206001016119e190919063ffffffff16565b6000600560008373ffffffffffffffffffffffffffffffffffffffff1673ffffffffffffffffffffffffffffffffffffffff1681526020019081526020016000208190555050565b60005b8282905081101561193f5761192c8383838181106118f3577f4e487b7100000000000000000000000000000000000000000000000000000000600052603260045260246000fd5b905060200201602081019061190891906120a9565b600460008781526020019081526020016000206005016119e190919063ffffffff16565b808061193790612ff5565b9150506118ac565b50505050565b60005b828290508110156119db576119c883838381811061198f577f4e487b7100000000000000000000000000000000000000000000000000000000600052603260045260246000fd5b90506020020160208101906119a491906120a9565b6004600087815260200190815260200160002060030161176c90919063ffffffff16565b80806119d390612ff5565b915050611948565b50505050565b6119eb8282611d2f565b15611d2b578160000160016119ff84611ebb565b611a099190612eef565b81548110611a40577f4e487b7100000000000000000000000000000000000000000000000000000000600052603260045260246000fd5b9060005260206000200160009054906101000a900473ffffffffffffffffffffffffffffffffffffffff168260000160018460010160008573ffffffffffffffffffffffffffffffffffffffff1673ffffffffffffffffffffffffffffffffffffffff16815260200190815260200160002054611abd9190612eef565b81548110611af4577f4e487b7100000000000000000000000000000000000000000000000000000000600052603260045260246000fd5b9060005260206000200160006101000a81548173ffffffffffffffffffffffffffffffffffffffff021916908373ffffffffffffffffffffffffffffffffffffffff1602179055508160010160008273ffffffffffffffffffffffffffffffffffffffff1673ffffffffffffffffffffffffffffffffffffffff168152602001908152602001600020548260010160008460000160018660010160008773ffffffffffffffffffffffffffffffffffffffff1673ffffffffffffffffffffffffffffffffffffffff16815260200190815260200160002054611bd69190612eef565b81548110611c0d577f4e487b7100000000000000000000000000000000000000000000000000000000600052603260045260246000fd5b9060005260206000200160009054906101000a900473ffffffffffffffffffffffffffffffffffffffff1673ffffffffffffffffffffffffffffffffffffffff1673ffffffffffffffffffffffffffffffffffffffff168152602001908152602001600020819055508160010160008273ffffffffffffffffffffffffffffffffffffffff1673ffffffffffffffffffffffffffffffffffffffff1681526020019081526020016000206000905581600001805480611cf5577f4e487b7100000000000000000000000000000000000000000000000000000000600052603160045260246000fd5b6001900381819060005260206000200160006101000a81549073ffffffffffffffffffffffffffffffffffffffff021916905590555b5050565b6000808360010160008473ffffffffffffffffffffffffffffffffffffffff1673ffffffffffffffffffffffffffffffffffffffff16815260200190815260200160002054118015611dc957508260010160008373ffffffffffffffffffffffffffffffffffffffff1673ffffffffffffffffffffffffffffffffffffffff16815260200190815260200160002054836000018054905010155b8015611eb357508173ffffffffffffffffffffffffffffffffffffffff168360000160018560010160008673ffffffffffffffffffffffffffffffffffffffff1673ffffffffffffffffffffffffffffffffffffffff16815260200190815260200160002054611e399190612eef565b81548110611e70577f4e487b7100000000000000000000000000000000000000000000000000000000600052603260045260246000fd5b9060005260206000200160009054906101000a900473ffffffffffffffffffffffffffffffffffffffff1673ffffffffffffffffffffffffffffffffffffffff16145b905092915050565b600081600001805490509050919050565b6000611edf611eda84612dff565b612dda565b905082815260208101848484011115611ef757600080fd5b611f02848285612f82565b509392505050565b6000611f1d611f1884612e30565b612dda565b905082815260208101848484011115611f3557600080fd5b611f40848285612f82565b509392505050565b600081359050611f5781613552565b92915050565b60008083601f840112611f6f57600080fd5b8235905067ffffffffffffffff811115611f8857600080fd5b602083019150836020820283011115611fa057600080fd5b9250929050565b600081905082602060020282011115611fbf57600080fd5b92915050565b600081905082602060020282011115611fdd57600080fd5b92915050565b600081905082602060020282011115611ffb57600080fd5b92915050565b60008135905061201081613569565b92915050565b60008135905061202581613580565b92915050565b600082601f83011261203c57600080fd5b813561204c848260208601611ecc565b91505092915050565b600082601f83011261206657600080fd5b8135612076848260208601611f0a565b91505092915050565b60008135905061208e81613597565b92915050565b6000813590506120a3816135ae565b92915050565b6000602082840312156120bb57600080fd5b60006120c984828501611f48565b91505092915050565b6000806000806000806000806000806101008b8d0312156120f257600080fd5b60006121008d828e01611f48565b9a505060206121118d828e01611f48565b99505060408b013567ffffffffffffffff81111561212e57600080fd5b61213a8d828e01611f5d565b985098505060608b013567ffffffffffffffff81111561215957600080fd5b6121658d828e01611f5d565b965096505060806121788d828e01612094565b94505060a06121898d828e01612016565b93505060c061219a8d828e01612016565b92505060e06121ab8d828e0161207f565b9150509295989b9194979a5092959850565b60008060008060008061014087890312156121d757600080fd5b60006121e589828a01611f48565b96505060206121f689828a01611f48565b955050604061220789828a01611fe3565b945050608061221889828a01611fa7565b93505060c061222989828a01611fa7565b92505061010061223b89828a01611fc5565b9150509295509295509295565b60008060008060008060c0878903121561226157600080fd5b600061226f89828a01611f48565b965050602061228089828a01611f48565b955050604061229189828a01612094565b94505060606122a289828a01612016565b93505060806122b389828a01612016565b92505060a06122c489828a0161207f565b9150509295509295509295565b6000806000806000606086880312156122e957600080fd5b60006122f788828901611f48565b955050602086013567ffffffffffffffff81111561231457600080fd5b61232088828901611f5d565b9450945050604086013567ffffffffffffffff81111561233f57600080fd5b61234b88828901611f5d565b92509250509295509295909350565b600080600080600060a0868803121561237257600080fd5b600061238088828901611f48565b955050602061239188828901612016565b94505060406123a288828901612094565b93505060606123b388828901612016565b92505060806123c488828901612016565b9150509295509295909350565b600080604083850312156123e457600080fd5b60006123f285828601611f48565b92505060206124038582860161207f565b9150509250929050565b600080600080600060a0868803121561242557600080fd5b600061243388828901611f48565b955050602061244488828901612094565b945050604061245588828901612016565b935050606061246688828901612016565b92505060806124778882890161207f565b9150509295509295909350565b6000806020838503121561249757600080fd5b600083013567ffffffffffffffff8111156124b157600080fd5b6124bd85828601611f5d565b92509250509250929050565b6000602082840312156124db57600080fd5b600082013567ffffffffffffffff8111156124f557600080fd5b6125018482850161202b565b91505092915050565b60006020828403121561251c57600080fd5b600082013567ffffffffffffffff81111561253657600080fd5b61254284828501612055565b91505092915050565b60006020828403121561255d57600080fd5b600061256b8482850161207f565b91505092915050565b6000806040838503121561258757600080fd5b60006125958582860161207f565b92505060206125a685828601611f48565b9150509250929050565b60008060008060008060c087890312156125c957600080fd5b60006125d789828a0161207f565b96505060206125e889828a01611f48565b95505060406125f989828a01612094565b945050606061260a89828a01612016565b935050608061261b89828a01612016565b92505060a061262c89828a0161207f565b9150509295509295509295565b60008060006040848603121561264e57600080fd5b600061265c8682870161207f565b935050602084013567ffffffffffffffff81111561267957600080fd5b61268586828701611f5d565b92509250509250925092565b600080600080600080608087890312156126aa57600080fd5b60006126b889828a0161207f565b965050602087013567ffffffffffffffff8111156126d557600080fd5b6126e189828a01611f5d565b9550955050604087013567ffffffffffffffff81111561270057600080fd5b61270c89828a01611f5d565b9350935050606061271f89828a01612001565b9150509295509295509295565b60006020828403121561273e57600080fd5b600061274c84828501612094565b91505092915050565b6000612761838361276d565b60208301905092915050565b61277681612f23565b82525050565b61278581612f23565b82525050565b60006127978385612eab565b93506127a282612e61565b8060005b858110156127db576127b88284612ed8565b6127c28882612755565b97506127cd83612e91565b9250506001810190506127a6565b5085925050509392505050565b60006127f382612e7b565b6127fd8185612eab565b935061280883612e6b565b8060005b838110156128395781516128208882612755565b975061282b83612e9e565b92505060018101905061280c565b5085935050505092915050565b61284f81612f35565b82525050565b61285e81612f41565b82525050565b61287561287082612f41565b61303e565b82525050565b600061288682612e86565b6128908185612ecd565b93506128a0818560208601612f91565b80840191505092915050565b60006128b9601c83612ecd565b91506128c4826130b7565b601c82019050919050565b60006128dc603f83612ebc565b91506128e7826130e0565b604082019050919050565b60006128ff602983612ebc565b915061290a8261312f565b604082019050919050565b6000612922604383612ebc565b915061292d8261317e565b606082019050919050565b6000612945605a83612ebc565b9150612950826131f3565b606082019050919050565b6000612968604a83612ebc565b915061297382613268565b606082019050919050565b600061298b603c83612ebc565b9150612996826132dd565b604082019050919050565b60006129ae606583612ebc565b91506129b98261332c565b608082019050919050565b60006129d1602983612ebc565b91506129dc826133c7565b604082019050919050565b60006129f4603f83612ebc565b91506129ff82613416565b604082019050919050565b6000612a17605383612ebc565b9150612a2282613465565b606082019050919050565b6000612a3a601883612ebc565b9150612a45826134da565b602082019050919050565b6000612a5d603c83612ebc565b9150612a6882613503565b604082019050919050565b612a7c81612f6b565b82525050565b612a8b81612f75565b82525050565b6000612a9d828461287b565b915081905092915050565b6000612ab3826128ac565b9150612abf8284612864565b60208201915081905092915050565b600060a082019050612ae3600083018a61277c565b612af0602083018961277c565b8181036040830152612b0381878961278b565b90508181036060830152612b1881858761278b565b9050612b276080830184612846565b98975050505050505050565b6000608082019050612b48600083018761277c565b8181036020830152612b5a81866127e8565b90508181036040830152612b6e81856127e8565b90508181036060830152612b8281846127e8565b905095945050505050565b6000602082019050612ba26000830184612846565b92915050565b6000602082019050612bbd6000830184612855565b92915050565b6000606082019050612bd86000830186612855565b612be56020830185612855565b612bf26040830184612a82565b949350505050565b6000608082019050612c0f6000830187612855565b612c1c6020830186612a82565b612c296040830185612855565b612c366060830184612855565b95945050505050565b60006020820190508181036000830152612c58816128cf565b9050919050565b60006020820190508181036000830152612c78816128f2565b9050919050565b60006020820190508181036000830152612c9881612915565b9050919050565b60006020820190508181036000830152612cb881612938565b9050919050565b60006020820190508181036000830152612cd88161295b565b9050919050565b60006020820190508181036000830152612cf88161297e565b9050919050565b60006020820190508181036000830152612d18816129a1565b9050919050565b60006020820190508181036000830152612d38816129c4565b9050919050565b60006020820190508181036000830152612d58816129e7565b9050919050565b60006020820190508181036000830152612d7881612a0a565b9050919050565b60006020820190508181036000830152612d9881612a2d565b9050919050565b60006020820190508181036000830152612db881612a50565b9050919050565b6000602082019050612dd46000830184612a73565b92915050565b6000612de4612df5565b9050612df08282612fc4565b919050565b6000604051905090565b600067ffffffffffffffff821115612e1a57612e19613077565b5b612e23826130a6565b9050602081019050919050565b600067ffffffffffffffff821115612e4b57612e4a613077565b5b612e54826130a6565b9050602081019050919050565b6000819050919050565b6000819050602082019050919050565b600081519050919050565b600081519050919050565b6000602082019050919050565b6000602082019050919050565b600082825260208201905092915050565b600082825260208201905092915050565b600081905092915050565b6000612ee76020840184611f48565b905092915050565b6000612efa82612f6b565b9150612f0583612f6b565b925082821015612f1857612f17613048565b5b828203905092915050565b6000612f2e82612f4b565b9050919050565b60008115159050919050565b6000819050919050565b600073ffffffffffffffffffffffffffffffffffffffff82169050919050565b6000819050919050565b600060ff82169050919050565b82818337600083830152505050565b60005b83811015612faf578082015181840152602081019050612f94565b83811115612fbe576000848401525b50505050565b612fcd826130a6565b810181811067ffffffffffffffff82111715612fec57612feb613077565b5b80604052505050565b600061300082612f6b565b91507fffffffffffffffffffffffffffffffffffffffffffffffffffffffffffffffff82141561303357613032613048565b5b600182019050919050565b6000819050919050565b7f4e487b7100000000000000000000000000000000000000000000000000000000600052601160045260246000fd5b7f4e487b7100000000000000000000000000000000000000000000000000000000600052604160045260246000fd5b6000601f19601f8301169050919050565b7f19457468657265756d205369676e6564204d6573736167653a0a333200000000600082015250565b7f455243313438343a204f6e6c7920612070726f7669646572206f66207468697360008201527f206964656e746974792063616e2072656d6f76652070726f7669646572732e00602082015250565b7f455243313438343a204164647265737320646f65736e2774206861766520616e60008201527f206964656e746974790000000000000000000000000000000000000000000000602082015250565b7f455243313438343a2043616c6c6572206d75737420626520746865206f6e652060008201527f617070726f76696e67206f7220746865206f6e65206265696e6720617070726f60208201527f7665640000000000000000000000000000000000000000000000000000000000604082015250565b7f455243313438343a204173736f6369617465642061646472657373206861732060008201527f6e6f7420676976656e20796f752072696768747320746f20626520616464206160208201527f6e6f74686572206173736f63696174656420616464726573732e000000000000604082015250565b7f455243313438343a204164647265737320686173206e6f7420676976656e207960008201527f6f752072696768747320746f206265206173736f63696174656420746f20616e60208201527f206964656e746974792e00000000000000000000000000000000000000000000604082015250565b7f455243313438343a204f6e6c792061207265736f6c766572206f66207468697360008201527f206964656e746974792063616e20616464207265736f6c766572732e00000000602082015250565b7f455243313438343a20455243313438343a204164647265737320686173206e6f60008201527f7420676976656e20796f752072696768747320746f2072656d6f76652069742060208201527f66726f6d206265696e67206173736f63696174656420746f20616e206964656e60408201527f746974792e000000000000000000000000000000000000000000000000000000606082015250565b7f455243313438343a204e6f206964656e7469747920776974682074686973204560008201527f494e206578697374730000000000000000000000000000000000000000000000602082015250565b7f455243313438343a204f6e6c792061207265736f6c766572206f66207468697360008201527f206964656e746974792063616e2072656d6f7665207265736f6c766572732e00602082015250565b7f455243313438343a20455243313438343a204164647265737320686173206e6f60008201527f7420676976656e20796f752072696768747320746f206265206173736f63696160208201527f74656420746f20616e206964656e746974792e00000000000000000000000000604082015250565b7f696e76616c6964207369676e6174757265206c656e6774680000000000000000600082015250565b7f455243313438343a204f6e6c7920612070726f7669646572206f66207468697360008201527f206964656e746974792063616e206164642070726f7669646572732e00000000602082015250565b61355b81612f23565b811461356657600080fd5b50565b61357281612f35565b811461357d57600080fd5b50565b61358981612f41565b811461359457600080fd5b50565b6135a081612f6b565b81146135ab57600080fd5b50565b6135b781612f75565b81146135c257600080fd5b5056fea264697066735822122014aaea0100ea7340314b9b904036ebeb50221ac4cf8088de60db7e1ef013b75964736f6c63430008010033",
  "linkReferences": {},
  "deployedLinkReferences": {}
}